:02000000805529
:02000B00801063
:10001B008023C28C900118E52193F520A2079291C1
:10002B00C2070521E521B4280375210085258A85A2
:10003B00268CD28C32E52295209290E5222524F550
:10004B0022D5230675220075230A183275210075F7
:10005B0024047525807526FE752700C2B075220015
:10006B0075230A85258A85268C758DB3758921D2D2
:10007B00A9D2ABD2AFD28CD28E75900020B7FD78BF
:10008B000120B7F8B800FAA927B900137527017535
:10009B0024057525337526FE43B03FC2B18069B97F
:1000AB0001137527027524067525C07526FD43B00F
:1000BB003FC2B28053B90213752703752408752507
:1000CB00007526FD43B03FC2B3803DB903137527BE
:1000DB000475240B7525807526FB43B03FC2B48095
:1000EB0027B904137527057524177525007526F791
:1000FB0043B03FC2B5801175270075240475258068
:10010B007526FE43B03FC2B030B7FD018700060B2A
:10011B0011161A1E212325252523211E1A16110B14
:10012B000600868B91969A9EA1A3A5A5A5A3A19E39
:05013B009A96918B86ED
:00000001FF
